S02B00006D796F2D636F72652D6170706C69636174696F6E2D5245565F442D6E6F2D636865636B73756D2E680B
S224010000000001206D2201007D600200956002009560020095600200956002009560020077
S224010020956002009560020095600200956002009560020095600200956002009560020002
S224010040FD690200316A0200656A0200996A020095600200956002009560020095600200E3
S2240100609560020095600200956002009560020095600200956002009560020095600200C2
S2240100808D69020095600200956002009560020095600200956002009560020095600200A1
S2240100A0756E0200956002009560020095600200956002009560020095600200E55E020046
S2240100C0E55E0200956002009560020095600200956002009560020095600200D1420100F7
S2240100E095600200A15A02009560020095600200956002009560020095600200956002003C
S224010100956002009560020095600200956002009560020095600200956002009560020021
S2240101209560020095600200416E010065D1010085D10100A5D10100D9D101000DD201008B
S2240101409560020095600200956002009560020095600200956002009560020095600200E1
S22401016095600200356D010095600200956002009560020095600200956002009560020015
S2140101809560020095600200010001000400020073
S2240101F8FFFFFFFF606205006B0000007B0D0A20202276657273696F6E223A207B0D0A208B
S224010218202020226D616A6F72223A20312C0D0A20202020226D696E6F72223A20312C0D88
S2240102380A20202020227061746368223A20342C0D0A202020202268617264776172655FA2
S21C0102587265766973696F6E223A20320D0A20207D0D0A7D0D0A0000EC
S2240104100000000000000000000000000000000000000000000000000000000000000000C6
S2240104300000000000000000000000000000000000000000000000000000000000000000A6
S224010450000000000000000000000000000000000000000000000000000000000000000086
S224010470000000000000000000000000000000000000000000000000000000000000000066
S22401100081F0004102E000BF83F0004330B54FEA41044FEA430594EA050F08BF90EA020FF9
S2240110201FBF54EA000C55EA020C7FEA645C7FEA655C00F0E2804FEA5454D4EB5555B8BFCF
S2240110406D420CDD2C4480EA020281EA030382EA000083EA010180EA020281EA0303362D86
S22401106088BF30BD11F0004F4FEA01314FF4801C4CEA113102D0404261EB410113F0004FF0
S2240110804FEA03334CEA133302D0524263EB430394EA050F00F0A780A4F10104D5F1200E2E
S2240110A00DDB02FA0EFC22FA05F2801841F1000103FA0EF2801843FA05F359410EE0A5F176
S2240110C020050EF1200E012A03FA0EFC28BF4CF0020C43FA05F3C01851EBE37101F0004582
S2240110E007D54FF0000EDCF1000C7EEB00006EEB0101B1F5801F1BD3B1F5001F0CD34908FC
S2240111005FEA30004FEA3C0C04F101044FEA445212F5800F80F09A80BCF1004F08BF5FEADA
S224011120500C50F1000041EB045141EA050130BD5FEA4C0C404141EB010111F4801FA4F1E4
S2240111400104E9D191F0000F04BF01460020B1FA81F308BF2033A3F10B03B3F120020CDA89
S2240111600C3208DD02F1140CC2F10C0201FA0CF021FA02F10CE002F11402D8BFC2F1200C02
S22401118001FA02F120FA0CFCDCBF41EA0C019040E41AA2BF01EB0451294330BD6FEA04043C
S2240111A01F3C1CDA0C340EDC04F11404C4F1200220FA04F001FA02F340EA030021FA04F38D
S2240111C045EA030130BDC4F10C04C4F1200220FA02F001FA04F340EA0300294630BD21FAAB
S2240111E004F0294630BD94F0000F83F4801306BF81F480110134013D4EE77FEA645C18BF89
S2240112007FEA655C29D094EA050F08BF90EA020F05D054EA000C04BF1946104630BD91EAC2
S224011220030F1EBF0021002030BD5FEA545C05D14000494128BF41F0004130BD14F580041F
S2240112403CBF01F5801130BD01F0004545F0FE4141F470014FF0000030BD7FEA645C1ABF9B
S224011260194610467FEA655C1CBF0B46024650EA013406BF52EA033591EA030F41F400218A
S22401128030BD00BF90F0000F04BF0021704730B54FF4806404F132044FF000054FF00001B7
S2240112A050E700BF90F0000F04BF0021704730B54FF4806404F1320410F0004548BF404203
S2240112C04FF000013EE700BF42004FEAE2014FEA31014FEA02701FBF12F07F4393F07F4F7D
S2240112E081F06051704792F0000F14BF93F07F4F704730B54FF4607401F0004521F000411F
S22401130020E700BF50EA010208BF704730B54FF000050AE050EA010208BF704730B511F092
S224011320004502D5404261EB41014FF4806404F132045FEA915C3FF4DCAE4FF003025FEAA9
S224011340DC0C18BF03325FEADC0C18BF033202EBDC02C2F1200300FA03FC20FA02F001FAB5
S22401136003FE40EA0E0021FA02F11444C1E600BF70B54FF0FF0C4CF4E06C1CEA11541DBF20
S2240113801CEA135594EA0C0F95EA0C0F00F0DEF82C4481EA030621EA4C5123EA4C5350EA6E
S2240113A0013518BF52EA033541F4801143F4801338D0A0FB02CE4FF00005E1FB02E506F0A6
S2240113C00042E0FB03E54FF00006E1FB03569CF0000F18BF4EF0010EA4F1FF04B6F5007F07
S2240113E064F5407404D25FEA4E0E6D4146EB060642EAC62141EA55514FEAC52040EA5E509A
S2240114004FEACE2EB4F1FD0C88BFBCF5E06F1ED8BEF1004F08BF5FEA500E50F1000041EBCD
S224011420045170BD06F0004646EA010140EA020081EA0301B4EB5C04C2BFD4EB0C0541EAA0
S224011440045170BD41F480114FF0000E013C00F3AB8014F1360FDEBF002001F0004170BD30
S224011460C4F10004203C35DA0C341BDC04F11404C4F1200500FA05F320FA04F001FA05F232
S22401148040EA020001F0004221F0004110EBD37021FA04F642EB06015EEA430E08BF20EAA4
S2240114A0D37070BDC4F10C04C4F1200500FA04F320FA05F001FA04F240EA020001F00041C8
S2240114C010EBD37041F100015EEA430E08BF20EAD37070BDC4F1200500FA05F24EEA020EA8
S2240114E020FA04F301FA05F243EA020321FA04F001F0004121FA04F220EA020000EBD37025
S2240115005EEA430E08BF20EAD37070BD94F0000F0FD101F00046400041EB010111F4801F2F
S22401152008BF013CF7D041EA060195F0000F18BF704703F00046520043EB030313F4801F21
S22401154008BF013DF7D043EA0603704794EA0C0F0CEA135518BF95EA0C0F0CD050EA410607
S22401156018BF52EA4306D1D181EA030101F000414FF0000070BD50EA410606BF104619465F
S22401158052EA430619D094EA0C0F02D150EA013613D195EA0C0F05D152EA03361CBF104600
S2240115A019460AD181EA030101F0004141F0FE4141F470014FF0000070BD41F0FE4141F423
S2240115C0780170BD70B54FF0FF0C4CF4E06C1CEA11541DBF1CEA135594EA0C0F95EA0C0F7C
S2240115E000F0A7F8A4EB050481EA030E52EA03354FEA013100F088804FEA03334FF08055E8
S22401160045EA131343EA12634FEA022245EA111545EA10654FEA00260EF000419D4208BF33
S224011620964244F1FD0404F5407402D25B084FEA3202B61A65EB03055B084FEA32024FF40A
S22401164080104FF4002CB6EB020E75EB030E22BFB61A754640EA0C005B084FEA3202B6EB50
S224011660020E75EB030E22BFB61A754640EA5C005B084FEA3202B6EB020E75EB030E22BF1E
S224011680B61A754640EA9C005B084FEA3202B6EB020E75EB030E22BFB61A754640EADC008F
S2240116A055EA060E18D04FEA051545EA16754FEA06164FEAC30343EA52734FEAC2025FEA50
S2240116C01C1CC0D111F4801F0BD141EA00014FF000004FF0004CB6E711F4801F04BF01437D
S2240116E00020B4F1FD0C88BFBCF5E06F3FF6AFAEB5EB030C04BFB6EB020C5FEA500C50F136
S224011700000041EB045170BD0EF0004E4EEA113114EB5C04C2BFD4EB0C0541EA045170BDF2
S22401172041F480114FF0000E013C90E645EA060E8DE60CEA135594EA0C0F08BF95EA0C0FCF
S2240117403FF43BAF94EA0C0F0AD150EA01347FF434AF95EA0C0F7FF425AF104619462CE784
S22401176095EA0C0F06D152EA03353FF4FDAE1046194622E750EA410618BF52EA43067FF492
S224011780C5AE50EA41047FF40DAF52EA43057FF4EBAE12E74FF0FF3C06E000BF4FF0010C2E
S2240117A002E000BF4FF0010C4DF804CD4FEA410C7FEA6C5C4FEA430C18BF7FEA6C5C1BD0EE
S2240117C001B050EA410C0CBF52EA430C91EA030F02BF90EA020F0020704710F1000F91EA3A
S2240117E0030F58BF994208BF90422CBFD8176FEAE37040F0010070474FEA410C7FEA6C5C21
S22401180002D150EA013C07D14FEA430C7FEA6C5CD6D152EA033CD3D05DF8040B704700BF48
S2240118208446104662468C461946634600E000BF01B5FFF7B7FF002848BF10F1000F01BD02
S2240118404DF808EDFFF7F4FF0CBF012000205DF808FB00BF4DF808EDFFF7EAFF34BF01200F
S22401186000205DF808FB00BF4DF808EDFFF7E0FF94BF012000205DF808FB00BF4DF808ED37
S224011880FFF7CEFF94BF012000205DF808FB00BF4DF808EDFFF7C4FF34BF012000205DF858
S2240118A008FB00BF4FEA410212F5001215D211D56FF47873B3EB625212D94FEAC12343F023
S2240118C0004343EA505311F0004F23FA02F018BF404270474FF00000704750EA013005D149
S2240118E011F0004008BF6FF0004070474FF00000704700BF4FEA4102B2F1E04324BFB3F502
S224011900001CDCF1FE5C0DD901F0004C4FEAC0024CEA5070B2F1004F40EB830008BF20F0F3
S2240119200100704711F0804F21D113F13872BCBF01F00040704741F480114FEA5252C2F1C0
S2240119401802C2F1200C10FA0CF320FA02F018BF40F001004FEAC1234FEAD32303FA0CFC1A
S22401196040EA0C0023FA02F34FEA4303CCE77FEA625307D150EA01331EBF4FF0FE4040F4F5
S2240119804000704701F0004040F0FE4040F40000704700BF80F0004002E000BF81F00041FE
S2240119A042001FBF5FEA410392EA030F7FEA226C7FEA236C6AD04FEA1262D2EB1363C1BF5D
S2240119C0D218414048404140B8BF5B42192B88BF704710F0004F40F4000020F07F4018BF0E
S2240119E0404211F0004F41F4000121F07F4118BF494292EA030F3FD0A2F1010241FA03FC39
S224011A0010EB0C00C3F1200301FA03F100F0004302D5494260EB4000B0F5000F13D3B0F198
S224011A20807F06D340084FEA310102F10102FE2A51D2B1F1004F40EBC25008BF20F00100CE
S224011A4040EA03007047490040EB000010F4000FA2F10102EDD1B0FA80FCACF1080CB2EB4D
S224011A600C0200FA0CF0AABF00EBC25052421843BCBFD0401843704792F0000F81F4000163
S224011A8006BF80F400000132013BB5E74FEA41037FEA226C18BF7FEA236C21D092EA030F3A
S224011AA004D092F0000F08BF0846704790EA010F1CBF0020704712F07F4F04D1400028BFE7
S224011AC040F00040704712F100723CBF00F50000704700F0004343F0FE4040F4000070472E
S224011AE07FEA226216BF08467FEA23630146420206BF5FEA412390EA010F40F480007047EF
S224011B004FF0000304E000BF10F0004348BF40425FEA000C08BF704743F0964301464FF0A9
S224011B2000001CE050EA010208BF70474FF000030AE000BF50EA010208BF704711F00043FE
S224011B4002D5404261EB41015FEA010C02BF84460146002043F0B64308BFA3F18053A3F55E
S224011B600003BCFA8CF2083AA3EBC25310DB01FA02FC634400FA02FCC2F12002BCF1004FEF
S224011B8020FA02F243EB020008BF20F00100704702F1200201FA02FCC2F1200250EA4C0009
S224011BA021FA02F243EB020008BF20EADC70704773B96AB9002908BF0028BCBF00204FF0CB
S224011BC00041C4BF6FF000414FF0FF3000F08AB882B0EC462DE9005000F058F8DDF804E038
S224011BE002B00CBC704700BF4BB942B9002908BF002802D04FF0FF31084600F073B882B0FC
S224011C00EC462DE9005000F057F8DDF804E002B00CBC704707EE900AF5EEC07AF1EE10FA68
S224011C2008B503D4BDE8084000F00CB8B1EE670A10EE100A00F006F8424261EB41031046E9
S224011C40194608BD70B5FFF73FFB00230022C3F6F05304460D46FFF78BFB00F045F8064632
S224011C60FFF710FB00230022C4F2F013FFF780FB02460B4620462946FFF7C6F900F034F8AF
S224011C80002202431046314670BD00BFF8B5164604460D461F4600F047F806FB01F300FBF4
S224011CA00737A6FB0023FB18A21A65EB0303069CC4E90023F8BD00BFF8B5164604460D466B
S224011CC01F4600F08FF900FB07F7A0FB062306FB0177FB18A21A65EB0303069CC4E9002354
S224011CE0F8BD00BF704700BF4A0011D212F5001211D20DD56FF47873B3EB62520ED44FEA2E
S224011D00C12343F0004343EA505323FA02F070474FF00000704750EA013002D14FF0FF302B
S224011D2070474FF00000704700292DE9F00F1D46C0F29D800024002DC0F2948080460F464E
S224011D4094461E46E3BB8A4255D9B2FA82F747B1C7F1200520FA05F601FA07F1BA40314337
S224011D60B840170CB1FBF7F6030C1FFA82FC07FB16110CFB06F543EA01439D4208D9711E18
S224011D809B1880F013819D4240F21081023E9B18591BB1FBF7F507FB151380B20CFB05FC81
S224011DA040EA03418C4507D96B1E8A1880F00081944540F2FD80023D45EA0641002503E09D
S224011DC08B420CD9002529460A462B4614B1524263EB430310461946BDE8F00F7047B3FA4C
S224011DE083F5002D40F087808B4201D38242EAD800250121E8E712B90126B6FBF2F2B2FA91
S224011E0082F6002E39D18E1A130C1FFA82FC0125B6FBF3F703FB17614FEA10490CFB07F8DF
S224011E2049EA0146B04506D9791EB61802D2B04500F2D3800F46C8EB0606B6FBF3F103FB34
S224011E40116380B20CFB01FC40EA03439C4506D94E1E9A1802D2944500F2C280314641EA01
S224011E600741B1E7E443524263EB430366E7404261EB41014FF0FF345DE7B240C6F1200948
S224011E8021FA09F720FA09F5130C01FA06F1B7FBF3F845EA01091FFA82FC03FB18774FEAC5
S224011EA019410CFB08F541EA0747B040BD420AD9BF1808F1FF3680F08E80BD4240F28B80B4
S224011EC0A8F10208BF18791BB1FBF3F503FB15171FFA89F90CFB05F649EA07418E4206D969
S224011EE06F1E891871D28E426FD9023D89188E1B45EA08458CE7C5F1200122FA01F306FAF4
S224011F0005F61E4327FA01F24FEA164907FA05F720FA01F1B2FBF9F80F433B0C1FFA86FADA
S224011F2009FB18220AFB08FB43EA024293450CFA05FC08D9921908F1FF314AD2934548D93B
S224011F40A8F102089219CBEB0203B3FBF9F109FB1132BFB20AFB01FA47EA02439A4506D9EE
S224011F604A1E9B1933D29A4531D902399B1941EA08410F0C1FFA8CF808FB07F68AB24FEAC1
S224011F801C4C08FB02F80CFB026202EB18420CFB07FC964288BF0CF5803CCAEB03030CEB8C
S224011FA0124C63450ED305D000250DE70E46EFE61D4601E71FFA88F800FA05F008EB024510
S224011FC0A842F1D201390025FEE63D468FE71146CDE78846B7E7B04675E7023FB6182AE729
S224011FE002393CE72DE9F007144605460E46002B3DD18A4249D9B2FA82F747B1C7F120015A
S22401200020FA01F206FA07F6BC401643BD40220CB6FBF2F02F0CA1B202FB106601FB00F3AD
S22401202047EA0646B34208D9471E361980F0F880B34240F2F58002383619F61AB6FBF2F3E0
S22401204002FB1362ADB201FB03F145EA0242914207D95E1E121980F0E580914240F2E280B0
S224012060023B43EA00400021BDE8F00770478B4243D8B3FA83F4002C42D18B4202D382428B
S22401208000F2DF8000210120EEE712B90127B7FBF2F4B4FA84F2002A40F088800A1B230C6D
S2240120A0A7B20121B2FBF3F603FB16224FEA154C07FB06F04CEA0242904207D9121906F1F3
S2240120C0FF3C02D2904200F2CE806646121AB2FBF3F003FB1023ADB207FB00F745EA034373
S2240120E09F4207D9421E1B1980F09E809F4240F29B80023840EA0640B6E700210846B3E779
S224012100C4F1200622FA06F503FA04F32B434FEA134C21FA06F501FA04F120FA06F6B5FB01
S224012120FCF746EA010A1FFA83F80CFB17554FEA1A4108FB07F941EA0545A94502FA04F278
S22401214003D97E1EED187FD33746C9EB0501B1FBFCF60CFB16151FFA8AFA08FB06F84AEAD1
S2240121600541884503D9751EC91873D32E4646EA0746370C1FFA82FC0CFB07F5120CB3B25F
S2240121800CFB03FC02FB035303EB1C4302FB07F29D4288BF02F58032C8EB010102EB1342D7
S2240121A091424BD342D0304600215DE79440C2F1200521FA05F6230C20FA05F701FA02F146
S2240121C0B6FBF3FC39430D0CA7B203FB1C6645EA064607FB0CF8B04500FA02F508D9361954
S2240121E00CF1FF303DD2B0453BD9ACF1020C3619C8EB0602B2FBF3F003FB10268AB242EAB4
S224012200064207FB00F1914206D9461E121926D2914224D902381219521A40EA0C4141E704
S22401222038460AE733461CE7104663E71FFA8CFC00FA04F00CEB03439842B4D2701E002132
S22401224012E7214620460FE7A9457FF67DAF023FED187AE7884589D9023EC91887E7304652
S224012260DAE78446C4E7023E12192FE71FF0B6FA13F092FF40F240204FF24412C1F6FF70FF
S224012280C1F6FF720021121A1AF0B0FB1FF082FA1FF0B6FA1FF01CFA1FF0C0FA40F2402143
S2240122A0C1F6FF71002015F037F91AF051FB00BFFEE700BFF8B53D4B1A78012A0FD002D33D
S2240122C0022A16D0F8BD3A480178022936D0394B374958680122BDE8F84013F00FBD3449F5
S2240122E0087803282DD0334B5868BDE8F84013F005BD314C314D206800EB4002C0EBC20330
S224012300E918E85C0A282FD0CA780D2A31D021684A1C102A226041D0294A216810688142D4
S22401232040D02068234A00EB4001C0EBC1035068E9181722BDE8F84013F0E0BC01221A70DC
S224012340C5E71C491C4A48680221197000231360116801EB4102C1EBC20318491722C9187A
S224012360BDE8F84013F0CABC1649174B0A681A60D7E74B78192BCAD108780628C7D1134E3D
S2240123800A79336841F61060D7188742C9D810480531C0181AF009FB3760C2E7064B0020F4
S2240123A01860B9E70B4803F057FBBAE73404FF1F3504FF1F58C3FF1F3804FF1FAC02FF1FBA
S2240123C05804FF1F9CE9FF1F3C04FF1F94E9FF1F84CBFF1F1894030038B54CF25834C1F657
S2240123E0FF740025606813F0F7FC606813F02AFD40F28C2240F25C43C1F6FF72C1F6FF738D
S224012400642015601D6004F0A3FD4CF67840C0F203002946BDE838400AF07EBDF0B5534CF8
S224012420534D544E544960680023012287B033602B7013F063FC514801210AF06DFD287823
S224012440012803D030BF29780129FBD104F016FD90F8207090F821600022FF2F0192029255
S2240124600392049205927DD0FF2E7BD0002000F037FF003018BF012005238DF80C708DF8B3
S2240124800D60ADF80A308DF80E0001AE0FCE3C4FC7F807100721C7F8030039703068C7F880
S2240124A00B20152179701421B970C7F80F30C7F8130000E030BF17226068314913F04EFC07
S2240124C00828F7D02F4A30491346032003F8010B08684968C2F80100596000E030BF1722ED
S2240124E06068284913F03AFC0828F7D004F0C6FC264B0A221A7002780146581CFF2A08BF6B
S224012500234916221AF078FA172260681F4913F025FC0828F8D01F490220087000E030BF3F
S224012520172260681B4913F019FC0828F7D02B78022B03D030BF2B78022BFBD101F04CFFB7
S2240125400278FF2A02D0002003F01EFB1248134B016813481960134B002201210260196062
S22401256007B0F0BD1646174680E700BF58C3FF1F3404FF1F94E9FF1F3504FF1F78CC03004A
S2240125804402FF1F9002FF1F880101001C04FF1F001903004004FF1F9CE9FF1F3C04FF1FDA
S2240125A05804FF1F8C02FF1F38B54CF25834C1F6FF740025606813F00FFC606813F042FC0A
S2240125C040F28C2240F25C43C1F6FF72C1F6FF73642015601D6004F0BBFC4CF67840294669
S2240125E0C0F203000AF098FC4FF4FA7004F0B0FCBDE83840FFF712BFF8B5474E336833B1A0
S2240126004648474902680C68131BC82B15D8454C45482368026893427CD003EB4305C3EB92
S224012620C50042490A5C0D18101F072808D8DFE800F0181F3C440762076713F013FDE6E756
S2240126403B4803F009FA4FF47A7004F081FC13F009FD2368591C102908BF00212160012091
S224012660F8BD00F09DFC334A236801201060F1E7314C304D00F098FC606813F0ADFB6068EC
S22401268013F0E0FB0024642034602C6004F060FC21462A480AF040FC4FF4FA7004F058FC3A
S2240126A0FFF7BCFE2C600120F8BD69781929D1D1E81C00F08FFC2368CCE76B78002BC8D0DA
S2240126C068781F491AF00EF801260CE0EF1940781AF008F87B781A49002BBAD078781AF0BA
S2240126E001F8172EB5D0A819771C427814497E1C002AEBD1ADE7681C00F098F82368A9E773
S22401270004F0C4FB691C20221AF076F904F0E0FB23689FE70020F8BD8C02FF1F9CE9FF1FBC
S2240127203C04FF1F5804FF1F3804FF1FAC02FF1F989303005C04FF1F58C3FF1F78CC030069
S2240127408C01FF1F2DE9F843174B1B6807460E460BB9BDE8F883DFF858E0DFF85880DEF879
S2240127600000124D00EB400CC0EBCC0C08EB0C04D0F101034FF0080938BF002308F80C906C
S2240127801146E01C32466770A670CEF800301AF00CF900E030BF17226868214613F0DEFA5C
S2240127A00828F7D0BDE8F8838C02FF1F58C3FF1FA802FF1F5C02FF1F2DE9F843174B1B689D
S2240127C007460E460BB9BDE8F883DFF858E0DFF85880DEF80000124D00EB400CC0EBCC0CC1
S2240127E008EB0C04D0F101034FF0090938BF002308F80C901146E01C32466770A670CEF886
S22401280000301AF0D2F800E030BF17226868214613F0A4FA0828F7D0BDE8F8838C02FF1F0B
S22401282058C3FF1FA802FF1F5C02FF1FF0B585B0064604F0A1F9054608B105B0F0BD2A4C85
S224012840E06914F0B1FEFFF7C7FDC82004F080FB0121606813F01CFB4FF42043C4F20603FC
S224012860012204215D73214800911346204919F093FF87B200E030BF60681C493A4613F02B
S2240128806DFA0828F7D0B578707872793379F778367818490195029000970396164819F0EB
S2240128A07BFF85B200E030BF606813492A4613F055FA0828F7D0114E114D0FCE0FC53268AD
S2240128C02A7000E030BF102260680D4913F046FA0828F7D00B4803F0BFF802F0E3F905B07F
S2240128E0BDE8F04002F052BC58C3FF1F6004FF1F041903001C1903008004FF1F40190300EC
S224012900A004FF1FFC930300254B0122022830B51A6098BF234B054698BF1A5C224888BFB3
S224012920FF220229027098BF20480C4698BF425C1F4988BFFF2283B001200A7003F0D2F872
S224012940C82064210AF072FC782000210AF06EFCB4214FF496700AF069FC782000210AF04F
S22401296065FCFF214FF4FA700AF060FC0123022D8DF800309ABF0B4B5B5DFF23022C8DF889
S22401298001309CBF094B1B5D6A4688BFFF23232003218DF80230FFF70FFF03B030BD00BF3F
S2240129A0CC04FF1F581903000000FF1F541903000100FF1F00B5032383B098428DF8043061
S2240129C00AD004D9052807D010D2042305E0012802D00ED9022300E003462320032101AA06
S2240129E0ADF80530FFF7E8FE03B000BD4FF6FF73F3E70023F1E700BF30B5254D2B78FF2B3C
S224012A0083B007D0234C2078002833D1224A00202070D063214BFF2400202C701C7003F05A
S224012A2061F81F490868A8B14FF4FA7021460AF0FDFB782000210AF0F9FB4FF49670B4213B
S224012A400AF0F4FB782000210AF0F0FBC82064210AF0ECFB0023ADF800301C468DF802308A
S224012A602320022303216A468DF80030FFF7A4FE03B030BD02AA00230521ADF80430232016
S224012A8002F8041D03218DF80630FFF795FEBDE70000FF1FC004FF1F5480FF1F0100FF1FF8
S224012AA0748DFF1F08B5154B15480021196009F0EDFD08B101F094FC02210022104809F02A
S224012AC093FE0F480F49002209F0BAFE0C480E49002209F0BDFE0A480C49002209F0C0FEDC
S224012AE00B490C4BFF220A700B4900200A7018600A4A0B4B1070186008BD00BF748DFF1FDF
S224012B00D404FF1F09290100F9290100B52901000000FF1FCC04FF1F0100FF1FC004FF1F77
S224012B20D004FF1F214B10B501221C681A6000F0D3FFD0B102F0F2F808B124B110BD02F0DF
S224012B40B1F8002CFAD104F099F990F82010012926D041B9164B90F821001A68904207D33F
S224012B6014480378B3B9224607E000F053FEE1E7114941F6106404FB001202210F4809F02B
S224012B8033FE0F4A0F4BFF2010700F4A00211960107010BD01200D4903F05EF82246ECE771
S224012BA090F8210000F09CFB0246E6E7748DFF1F2C980300F800FF1F30980300D404FF1F0D
S224012BC00000FF1FCC04FF1F0100FF1F5C190300044B0549002018600A78FF2A01D0FFF7A5
S224012BE00BBF7047748DFF1F0000FF1F48F67453C1F6FF731868704710B504F03FF990F833
S224012C002040012C1AD0FCB9104A90F821301068834209D20E4A41F6106101FB03210D48C2
S224012C20BDE8104009F06EBD0B4B19780029F6D00A49012003F010F82146F0E790F8210049
S224012C4000F04EFB0146EAE70021E8E72C98030030980300D404FF1FF800FF1F5C19030017
S224012C6070B5274B1A78FF2A82B0044610D000282AD0244D2E786EB1234B2C701A68234851
S224012C80234902600A68234B23491A600120C86302B070BD02A804216A46ADF8006000F8F3
S224012CA0081D232003218DF80260FFF785FD9620FF210AF0BBFA782031460AF0B7FA322092
S224012CC0FF210AF0B3FAD7E71A78FF2AE0D00D4D2B7883B102AAADF80400052002F8040D48
S224012CE0032123208DF80640FFF766FD4FF4967096210AF09BFA084A00212970D163C7E7C6
S224012D000000FF1FC004FF1F9CE9FF1FD004FF1FC404FF1FC804FF1F5480FF1F70B5144BD2
S224012D201A78FF2A82B005460E4606D0114C207828B9114A00232370D36302B070BD3DB141
S224012D40002EF6D14FF4967096210AF06FFAF0E702AA0521ADF80450232002F8041D0321F1
S224012D608DF80650FFF728FD002EE2D1EAE700BF0000FF1FC004FF1F5480FF1F70B5224C61
S224012D802378012B82B006460D4614D01F4B186808B902B070BD3146EAB21D4809F068FD51
S224012DA01C490A78FF2A01D003F05CFE1A4B002118681960EDE71948194902680B68D01A02
S224012DC000EB800140F2CF72B2EB410FDED2114B1878FF28DAD0217889B102AA00230520ED
S224012DE0ADF80430032102F8040D23208DF80630FFF7E2FC4FF4967096210AF017FA094A95
S224012E0000212170D163C1E7C004FF1F748DFF1FD404FF1F0000FF1FCC04FF1F9CE9FF1F78
S224012E20D004FF1F5480FF1F014640F2D440C1F6FF7009F00BBE00BF70B584B0054606F0DA
S224012E4035F9254C254E84ED000A3378012B11D0284606F011F9236828468DED010A0293A6
S224012E6006F034F91E4801A98DED030A09F0F0FD04B070BD1B481C4994ED007AD0ED007AD1
S224012E800A7837EE670A012ADFED180A08BFB1EE400AB4EEE00AF1EE10FAD9D8144B187836
S224012EA0FF28D5D0317891B104AA00230520ADF80030032102F8100D23206A468DF80230A5
S224012EC0FFF77AFC4FF4967096210AF0AFF9094A00213170D163BBE7C404FF1FC004FF1F2B
S224012EE0D404FF1FC804FF1F0100FF1FC7B832BE0000FF1F5480FF1F074B1978FF2910B57E
S224012F00044602D00AF0FAF900B110BD03482146BDE8104009F09EBD0000FF1FD404FF1F15
S224012F2070B51B4B186882B030B31A490A78FF2A22D0194C0D7823788DF8055023200321A5
S224012F40012601AA8DF806308DF80460FFF734FC1248038A032100248B428DF8041004D066
S224012F600CD9052B01D00ED204232320032101AAADF80530FFF720FC02B070BDB342F4D0C8
S224012F8004D90223F1E74FF6FF73EEE72346ECE7748DFF1F0000FF1F0100FF1FD404FF1F37
S224012FA0012002F0F1BD00BF08B5FFF7BBFD00210120FFF7B3FE002000F094FD002001F085
S224012FC0B3FE002003F0C8FD0020BDE8084002F0DBBD00BF70B503780446581E0D282AD875
S224012FE0DFE810F02A0039004C005F00660071000E00AF00C000C500CA00D4002900B40062
S2240130006088002840F0EF80B4F80500002840F0E6802089002840F0DE80B4F80B0000284E
S22401302040F0D580E089002840F0CD80B4F81100002840F0C08070BDA07800F053FDE078C5
S22401304001F072FE2379012B15D0FFF7C1FDBDE87040FFF765BFA078B4F80510E279237A68
S22401306000F08CFDB4F80910E078E27A01F09EFE21790129E9D1FFF755FDE8E7A0780228F4
S22401308000F0C280032800F09B800128D3D1C820FF210AF0CBF864200021BDE870400AF03C
S2240130A0C5B85C4801210022BDE8704009F0CEBE02F000F90028BED0574841F28831BDE8FA
S2240130C0704002F0E3BC01F083F9A51C40EA0506B20740F09C80011DA21D904238BF8D42CC
S2240130E0C0F09580D4F802300360D4F80650012645600822A3189119D5439E78531C6D1805
S2240131008B42865405F0010510D02DB1E2189278C25401338B4209D0E6185A1CB678A518F6
S224013120C6540233AD788B428554F5D101F01AF9002839D038484FF4FA61BDE8704002F00F
S224013140A5BCA078BDE8704002F080BD3349B4F803200B689A424AD031490020BDE87040C9
S22401316002F07ABDA078BDE8704003F0F5BCA078BDE87040FFF774BDA07800287FF45BAFBE
S22401318078200146BDE870400AF050B803F07EFEA27880F82020E37880F8213003F098FE05
S2240131A0BDE87040FFF728BD1E484FF47A71BDE8704002F06BBCE17CBDE870400AF036B83D
S2240131C04FF4966064E7217C0AF030F82EE7617B0AF02CF826E7A17A0AF028F81DE7E179F7
S2240131E00AF024F815E721790AF020F80CE7A07800F01CF800283FF41EAF0B49A278002046
S224013200BDE8704002F028BD4FF42F7040E7092600226FE748CC03001894030094E9FF1F6B
S224013220B81903003C9403009419030070B5224E224C3378022B82B0054617D8002020604A
S2240132408DB11F4A1F491368A3EB45348C422BD334B12046022101F017FA70B13278F2B925
S224013260012002B070BD18480468F1E71749236803202A4602F0F0FCE0E72046144941F687
S224013280106201F0D1F904460028E7D131780129E7D902200F4902F0DFFC2046E1E70120A8
S2240132A00D4902F0D9FCDBE7803900912A460B49234602F0D1FCD3E7F800FF1F94E9FF1F88
S2240132C0A4CB0300C8620500CCCB0300F419030084CBFF1F8C1A0300641A0300301A0300B9
S2240132E030B5024683B0F8B11749184B0868A0EB423098421DD30378FF2B13D101221146C2
S22401330041F6106507E0C35CFF2B0BD1035DFF2B08D1AA420BD0415C531C941C0332FF29AC
S2240133201146F0D003B030BD094A1068E3E70020F8E7A3F18001009103460649002002F0EC
S2240133408BFC0020D7E700BFA4CB0300C8620500CCCB0300301A030010B52B4C2378022BB7
S22401336022D80020294947F2E01201F0BDF938BB2078022829D8264903C9090301F0BCF946
S22401338000282DD12278022A2FD84FF480304FF4E02101F0B1F900B910BD1E494FF4803280
S2240133A002F0FEFC012010BD03201B4902F054FC0020164947F2E01201F096F90028D7D06B
S2240133C0154902F0EDFC012010BD0320134902F043FC0F4903C9090301F08EF90028D1D09F
S2240133E00E4902F0DDFC012010BD032009494FF4803202F031FC4FF480304FF4E02101F006
S2240134007BF90028C8D0C8E7F800FF1FAC1A0300B4CB0300DC8C0300888C0300B08C0300A1
S224013420022808B503D003280BD0012008BD064B93E8030001F028F9D0F1010038BF002026
S22401344008BDFFF789FFF7E7BCCB03002DE9F0418EB003F083FC002800F0B78003F07EFC08
S2240134600446C068754DC3077DD52A78012A03D90220734902F0F0FB724802F0EDFA0EF001
S224013480BDFE94E80F000AAC84E80F000D9B204623F001010D9103F06FFC2878012803D9EB
S2240134A00220694902F0D8FB12F0DCFD2C78674A6748116847F2DC1219F066FA10F0FF0F77
S2240134C04AD0012C03D90220624902F0C5FB624EDFF8B881F069614C14F066F8594802F089
S2240134E0BBFAD8F800702468029708AE06AF009701965B482146082204AB09F075FC40BBCB
S2240135009DF81030002B3CD02978022971D8554A5348D8F80030214609F0F8FB0246002887
S22401352062D12878022869D8D8F800204C48029204AB082200970196214609F055FC9DF8E2
S2240135401020034608B9042A6ED00020464902F083FB0EB0BDE8F081022CFAD9032043491C
S22401356002F07AFBF5E72C78022C28D837493848096847F2DC1219F007FA10F0FF0FA0D10F
S224013580E7E72B78022B29D8D8F8001034480291009701962146012204AB09F025FC804650
S2240135A00028D6D19DF810000328D2D1FFF7D4FE024640B340462E4902F04EFBC9E70320B5
S2240135C02C4902F049FB2C7871E72B4B0FCB0AAC84E80F00204603F0CFFB3FE703202749E1
S2240135E0224602F039FBCFE70020254902F034FBAFE70320234902F02FFB88E70320224994
S22401360002F02AFB90E7214A154813680097029301962146042204AB09F0E6FB002898D169
S2240136209DF81010042994D12878012803D90220174902F011FB12F015FD8AE7F800FF1F7D
S224013640148D0300D4940300288D0300C4CB0300AC1A0300608D030058C3FF1F9CCB0300AF
S224013660AC00FF1F21340100388E0300B08E0300B08D03004C8D0300201803007C8D0300B7
S224013680F48D0300E08D03001C8E030098E9FF1F848E030048F68853C1F6FF7310B41A6847
S2240136A0511C19601C684FF40040E305C4F20000DA0D48F6905102EBC20300F58154C1F640
S2240136C0FF7148F6CC6200F5805001EB4301C0F203022161026010BC704700BF70B5434B83
S2240136E0434E0446434832700D4601211960057002F072FB404A1178032940D0C82120465C
S22401370002F0D4FE3C21B1EE040A204602F05AFE3221B1EE040A204602F054FE7821B1EE43
S224013720040A204602F04EFE6421B1EE040A204602F048FEB421B1EE040A204602F042FEE7
S2240137409621B1EE040A204602F03CFEF021B1EE040A204602F036FEC821B1EE040A204627
S22401376002F030FE4FF49671B1EE040A204602F029FE2046FA21B1EE040A02F023FE1F4B02
S2240137801F4E1B681F4833602A46EE181E4D2B601E4B4FF400711E6000F03AFE4FF4304156
S2240137A0C4F2030104220A621948012109F0B4FB13F04EFEB4F57A7F16D8092C0FD841F25E
S2240137C04F244FF4C043C4F203035C60196841F001021A60186840F48031196070BD4BF23B
S2240137E01B7090FBF4F4ECE72E24EAE7BCB1FF1FB8B1FF1F858DFF1F848DFF1F888DFF1F2B
S224013800B4B1FF1F908DFF1FC0B1FF1F98B1FF1F80CC03004FF47A7064211422FFF75EBFA4
S2240138202DE9F047824C8349E06888B012F0D6FE8049E06812F018FF7F49E06812F0CEFE3D
S2240138407D49E06812F010FF4FF43043C4F2030301221A6279497A4B7A4A002064250D70C1
S2240138601870107000F0B8FD0078FF2812D000F0B3FD0078FF2805D0734A0121116008B0F8
S224013880BDE8F08703F078F90028F5D06F4802F0E3F8F1E703F070F90028E8D06C4F2946F3
S2240138A014224FF47A70FFF719FFD7F800A03E685544B54205D9E06913F0B0FE3968A94288
S2240138C0F9D3DFF8A491D9F800603A680AF16E0A0021524500910191029103910491059197
S2240138E0069107915AD25B4D8846D9F80030B3424CD0F005C30DDA00D11835F8110081B2E6
S22401390011B90098411C0091D01805EB4001488881B211B90198411C0191D01805EB4001CA
S224013920888881B211B90298411C0291D01805EB4001C88881B211B90398411C0391D01810
S22401394005EB4001088981B211B90498411C0491D01805EB4001488981B211B90598411C33
S2240139600591D01805EB4001888981B211B90698411C0691D31805EB4302D08981B211B97C
S224013980079B5A1C079208F101080136E06913F045FE38685045A8D34FEA6801009B9942E0
S2240139A01ADB019A914217DB0298814214DB039B994211DB049A8A420EDC059881420BDB61
S2240139C0069B994208DB079A914205DB00F004FD0021017000F0C6FC48F220001E4A1F49CF
S2240139E00023C4F204001360C0690B70430207D54FF4C043C4F203031A6822F0800018601E
S224013A0048F22001C4F204011548CB6923F48002CA61002109F080FA4FF43040C4F2030035
S224013A2001210162D9F800200E4B1A601FE700BF58C3FF1F5800FF1F0400FF1F878DFF1F6F
S224013A40B0B1FF1F868DFF1F94B1FF1FC09303009CE9FF1F908DFF1FBCB1FF1F848DFF1F5F
S224013A6080CC0300B4B1FF1F888DFF1F48F22002144908B5C4F2040200230B60D069124AE6
S224013A801370420207D54FF4C043C4F20303196821F08000186048F22003C4F204030B4884
S224013AA0DA6922F48001D961002109F035FA4FF43040C4F203000123054A03621168054899
S224013AC0016008BDBCB1FF1F848DFF1F80CC0300888DFF1FB4B1FF1F4BF2BC13C1F6FF73C6
S224013AE018687047831E012B10B537D91E4C207010B9FFF77BF840B14FF47A7318466421B7
S224013B001422BDE81040FFF7E9BD48F22001174A2070C4F204011060C869410207D54FF4CE
S224013B20C043C4F20303196821F080021A6048F22003C4F204030E48D96921F48002DA61AE
S224013B40002109F0E9F94FF43040C4F203000123084903620A680848026010BD02494FF49E
S224013B6096730870CAE700BF848DFF1FBCB1FF1F80CC0300888DFF1FB4B1FF1FF8B51C4C7A
S224013B800D4616461F46207010B9FFF72FF830B1284631463A46BDE8F840FFF79FBD48F2E6
S224013BA02003144A2070C4F204031060D869400207D54FF4C041C4F203010B6823F080025C
S224013BC00A6048F22001C4F204010B48CB6923F48002CA61002109F09FF94FF43040C4F2F9
S224013BE003000121054B01621A6805480260F8BD848DFF1FBCB1FF1F80CC0300888DFF1FC5
S224013C00B4B1FF1F2DE9F001B54A4FF00108B8F1100F10465FFA88F337D002EB080512F8D0
S224013C20084015F8015CA542414608F1FF3C25D2013B13F0010F15D0D9B202F808504B1EB9
S224013C4002F80C40C55C445CA5429C460AD315E0075D465DB74211D257551655C55C445C01
S224013C60A5420BD2555413F0FF0502F80C4005F1FF34E1B201F1FF339C46E9D108F1010806
S224013C80B8F1100F5FFA88F3C7D1117855789448A942847800F08D80A54200F06481C078E0
S224013CA0A94238BF2946844200F05A8101258C422B4600D9214601251479A04200F0C480AE
S224013CC09D4200F21D8100F0AC8001255079844200F0C0809D4200F20B8100F09D800125DE
S224013CE09479A04200F0BC809D4200F2F48000F08E800125D079844200F0B8809D4200F232
S224013D0007817FD00125147AA04200F0B5809D4200F2028172D00125507A844200F0B2809D
S224013D209D4200F2D48065D00125947AA04200F0AF809D4200F2F88058D00125D07A844247
S224013D4000F0AC809D4200F2F3804BD00125147BA04200F0A9809D4200F2EE803ED00125BF
S224013D60507B844200F0A6809D4200F2D98031D00124927B904200F0A3809C4200F2C48040
S224013D8024D00120984200F2A08000F0E480554A1368994201D3591EC9B2534802788A422C
S224013DA000F0CE80514B017000211970BDE8F0017047A1423AD0D0780223012584423CD069
S224013DC09D4200F299807FF476AF70E78842D8D90146D6E78C42CBD92146C9E78842BED99B
S224013DE00146BCE78C42B1D92146AFE78842A4D90146A2E78C4297D9214695E788428AD919
S224013E00014688E78C427FF67DAF21467AE788427FF66FAF01466CE78C427FF660AF2146FF
S224013E205DE788427FF651AF01464EE702200C460023451CD0788442C2D1681CC5B2204683
S224013E401479A0427FF43CAF681CC5B2507984427FF440AF6C1CE5B29479A0427FF444AF2F
S224013E60681CC5B2D07984427FF448AF6C1CE5B2147AA0427FF44BAF681CC5B2507A844241
S224013E807FF44EAF6C1CE5B2947AA0427FF451AF681CC5B2D07A84427FF454AF6C1CE5B28A
S224013EA0147BA0427FF457AF681CC5B2507B84427FF45AAF927B6C1C9042E4B27FF45DAF8E
S224013EC0601CC0B298427FF660AF11465FE72B462146012529E72B46014601250AE700BF57
S224013EE0A0B1FF1FFC180300788DFF1FB0B1FF1F2B4621460125F3E62B4621460125DBE6FE
S224013F002B4601460125E1E601462346012039E72B4621460125F6E62B4601460125FBE66C
S224013F2021462B46012424E72B460146012505E72B46214601250AE72B46014601250FE7E6
S224013F400B480278531CDAB2530702707FF42EAF084801702AE7914238BF1146C9B216E70C
S224013F6001231D4669E701231846451C62E700BFB0B1FF1F878DFF1F2DE9F04FB14C94F8EA
S224013F800080B8F101029BB0534253EB02000990002800F08A8001250A95AB4FDFF8F0B2DC
S224013FA03B68DBF80040A34200F08880DE05F20D02EBC200A54DA64C4100681847F6B83C01
S224013FC0B0F81090DBF800604FF0640A0896CFF6FE7C4EF2611619FB0ACCC9F6C84686FBE7
S224013FE00C9666444FEAEC79C9EB262C266806F1010A089EC4F800A0C3EB0609954EB9F5EB
S224014000007F86F800C021D3A8F10208B8F1010F70D901333B6001200A9D25B18E4D2A686A
S2240140209A4200F0D68023680F2B0CD98B4D894E2A783678511CCBB289492B700F2B8E543C
S2240140403FD8002222601BB0BDE8F08F6E5AA6F50066B6B26E524188A1F5006189B2418003
S2240140608188A1F5006189B28180C188A1F5006189B2C1800189A1F5006189B2018141893A
S224014080A1F5006189B241818189A1F5006189B28181C189A1F5006189B2B8F1030FC1816F
S2240140A02AD002F0E1FA3B68AEE7FEF79FFD011C18BF012194F800800A916EE7644C002088
S2240140C0AAE7684F684EFFF79DFD3A7811200121B218FEF737FB3878335C052B40F2DC8059
S2240140E00F2B00F2AB80012001F0E4F9002129700120A6E7DA05D20D02EBC2004600A91997
S22401410035F806C04D88DFF88CA18E88ADF81850CD8808894A89B1F80C90C989ADF808208D
S224014120ADF800104BF2C412DAF80010C1F6FF7202EB010846F30B16BDF81820089645F394
S2240141400B154BF2C41642F30B110595C1F6FF76DAF8005006914CF30B1C06F805C0BDF874
S2240141600010069EBDF8082088F8016040F30B100B90059E089D88F8036041F30B10DAF892
S22401418000100B9E88F80250083142F30B1249F30B191029CAF8001088F8046088F805200F
S2240141A088F8069088F807007FF433AF2F4D304A2B78D05C2F4AFEF7C5FA2978481CC3B29B
S2240141C0042B08BF00232B7000253B68CAF800501FE72949DBF800600878F31AC0F50076E8
S2240141E0B3420DD3254B264E1968481C1860254B316818784118121831602A60012012E752
S2240142001E4E32684AB120490878012803D902201E4901F021FD00223260194E3368D9057D
S224014220C80D12AA0DA900F005F90998C0BB12A89DF84410FEF7A2FD2A68D8E7002001F08E
S22401424039F953E7848DFF1FB4B1FF1F908DFF1F808DFF1F90B1FF1F98B1FF1F868DFF1FDD
S224014260A0B1FF1F878DFF1F941803008C8DFF1FD88E0300C4B1FF1F858DFF1F7C8DFF1F5E
S224014280C0B1FF1FB8B1FF1FF800FF1FDC8E0300888DFF1F9CB1FF1F022001F00BF925E7BE
S2240142A0272011210DAAFEF74DFAC0E7064B186840B106490A782AB94FF43043C4F20303FD
S2240142C050201860704700BF94B1FF1F848DFF1F4FF430436846C4F2030320F007011A692D
S2240142E08D4631B448F68053642404FB02F0C1F6FF73A0F54A3442F605051868C4F6543535
S2240143004BF29012FC3CC1F6FF72A5FB04510D0A01301570186031BC8546704738B50D486D
S2240143200D4C01F099FB0D4B1D686968AA68EB6828680FC455F8100F6968AA68EB680FC4AE
S22401434055F8100F696803C40548BDE8384001F083BB00BFC0930300D4B1FF1F94CB0300A0
S22401436030950300124B10B51C680121204600F08BF920B10F4A1378012093B910BD204678
S2240143800D49282200F050F904460028F2D10948017801290AD90220084901F05DFC20460F
S2240143A010BD074901F058FC012010BD204610BD94CB0300F800FF1FD4B1FF1F3C8F03008B
S2240143C0008F03004BF2D410C1F6FF70704700BF00487047ECB1FF1F00487047F5B1FF1F0B
S2240143E010B50848084C01F037FB01F073F8E06913F014F9054808F077FD0028F5D111F0CE
S22401440031FEF2E79893030058C3FF1FACCC030030B44BF200234BF204254BF2FC14C1F6FE
S224014420FF75C1F6FF74C1F6FF73286021601A6030BC70472DE9F04F6C4BD3F800802DED18
S224014440028B4CF6CD4407EE108ACCF6CC440027A4FB0846B8EEC78A83B00F744FEA960B7A
S224014460A2F1040A8946B8F1000F00F0B4804BF2FC11C1F6FF714BF204220D68C1F6FF7279
S22401448008F1FF33A84211684FF0000C03F00104064600D3461B06EBC60201EB42060123B4
S2240144A036F81720434592B212FB02F692B262D0002C40D01C18AC4228BFC5EB040404EB5E
S2240144C0C40401EB440434F81740A4B214FB04664BB112B2502A7ADC503202DA22B2503244
S2240144E001DB0CF1010C01334345A2B223D142E022B2502A01DC0CF1010C01331A18AA4223
S224014500A4B200D3521B02EBC20201EB420232F8172092B212FB02664BB124B2502C23DCB7
S224014520503402DA14B2503401DB0CF1010C0133434592B21FD01C18AC4228BFC5EB040435
S22401454004EBC40401EB440434F81740A4B214FB0466002BD1D012B2502AC9DC5032CADA43
S22401456022B25032C9DBC6E714B2502CDDDD0133434592B2DFD1644607EE906AB8EEE70AB2
S22401458080EE080AF1EEC00AF4EE600AF1EE10FA24D1BCEEE01A10EE903A11EE101A4AF8EB
S2240145A0043F29F81710A34594BF0023012399F8102003FA07F301371343082F89F81030AA
S2240145C07FF451AF03B0BDEC028BBDE8F08F22B2502A86DD87E744464646CDE7019019F0D2
S2240145E085FF0198F0EE400AD3E700BF00B2FF1F4BF208204CF6F52208B58021C0F2010256
S224014600C1F6FF7008F04AFA4EF69813C1F6FF73186040F2AC00C1F6FF7008F015FBBDE8F1
S2240146200840FFF77BBE00BF70B5124B1B78022B82B004460E46154615D871B60E490F480F
S2240146400A683346009221462A4608F007FB61B638B100900A4900202A46234601F0FCFA43
S224014660012002B070BD03200649234601F0F4FAE3E700BFF800FF1F98E9FF1FAC00FF1F72
S224014680748F0300548F030070B5124B1A780D03022A82B00E46044614D871B60E490F4847
S2240146A00B682A46214608F03BFA61B640B10190009400200A4932462B4601F0CDFA01201B
S2240146C002B070BD00900749032032462B4601F0C3FAE2E7F800FF1F98E9FF1FAC00FF1F13
S2240146E0E88F0300B08F03004CF6BC33C0F203031B681818FFF798BF4CF6BC3310B4C0F268
S2240147000303044618680A462018214610BCFFF78BBF00BF4BF2D822C1F6FF724BF28823C2
S224014720C1F6FF7311681A684FF47A7000FB01F3B3FBF2F0FEF7E0BB4BF2D423C1F6FF73B6
S22401474001221A60704700BF4BF2F023C1F6FF7301221A60704700BF044B05491A68501C29
S22401476018600B6803B1704702F07CB9DCB2FF1F24B3FF1F2DE9F04182B002AD184C05F88C
S224014780011D864617462068164E00217246984612F09CFD0023336001220023206829469B
S2240147A012F094FC0828F7D0306818B930BF31680029FBD00C4D00222A600123206841464D
S2240147C03A4612F003FD0828F7D02B681BB930BF2B68002BFBD0002002B0BDE8F08100BFD4
S2240147E058C3FF1FD4B2FF1FF0B2FF1FF0B585B0114D8DF80010074619460DF10100164642
S2240148000E4C18F0D2F8286800213A4612F05EFD002323600136012328686946324612F01E
S22401482055FC0828F7D0206818B930BF20680028FBD0002005B0F0BD58C3FF1FD4B2FF1F08
S22401484048F22003C4F204034FF44042596930B5C4F204024FF2C004C4F20F0421F04000F1
S2240148604FF4807558611562636943F4807289B062610A2002F06CFBE16841F480750A20B9
S224014880E56002F065FBE06840F48073E3600A2002F05EFBE26842F48071E1600A2002F086
S2240148A057FBE56845F48073E3600A2002F050FBE06840F48072E2600A2002F049FBE16824
S2240148C041F480750A20E56002F042FBE36843F48072E2600A2002F03BFBE06840F4807195
S2240148E0E1600A2002F034FBE56845F48073E3600A2002F02DFBE268464842F48075002102
S224014900E56008F009FB642002F022FB424C4148012108F001FB642002F01AFB20683F4CF2
S22401492012F06AFB642002F013FB002009F01AFE0DF04CF917F0CAFE16F026FC16F0AEFE6A
S224014940FFF740FD18220546FF2102A818F04EF802A92846182218F017F82178002828D15D
S224014960002951D113F0C4FC15F078FE16F0F0FE0BF0B8FE0DF04AF92078294A002302286B
S224014980137037D84FF4FA700A2128220AF0B8FE044630BB0CF016FB0CF024FB0CF01AFB3F
S2240149A020490C602048092109B0BDE8304008F0E9BA012903D902201C4901F04DF9032139
S2240149C005F10C000CF02CF8032128460CF000F913F09AFC0CF0F6FA0CF004FB0CF0FAFAB8
S2240149E0C2E72823009312494FF4FA720A2301F0D7F9D7E72824009403200D494FF4FA726C
S224014A000A2301F029F9BDE701200A4901F024F9A8E700BFA4CC030058C3FF1FF800FF1F1A
S224014A20ECB2FF1F24B3FF1F08CC030090900300C09003003C90030070B504468AB00020DA
S224014A400D4609F08FFD792009F0B8FC782009F063FC834B20461C6009F00AFB204609F035
S224014A60DDFB4FF4FA6009F0E1F9102009F03EFA0DF10E067B4C002D40F09480304609F0CE
S224014A8077FA0DF1060009F0E5FA0DF10A0009F0ABF90DF1050009F007FA03A80AF026FE58
S224014AA002A809F0B3FB21786E4D022900F2A780BDF8061044F24025C0F20F0595FBF1F06A
S224014AC00BF094FEBDF8062095FBF2F00BF0A8FEBDF8063095FBF3F0634D0BF0BDFE2A4621
S224014AE0286869682D7A04AB03C352F80C0F1D705168127A07AD03C504A82A700CF06EFFD1
S224014B00BDF80A10C9030BF069FE04A80CF066FF9DF80530D9030BF0FDFE07A80CF05EFFE1
S224014B20BDF80C20D1030BF0FDFE2078022861D84E4DE86912F072FD0BF07AF8002854D1B2
S224014B40E86912F06BFD2178022941D804A80CF045FF0BF079F846480BF02CFD01200BF091
S224014B6055FA02200BF09EFBBDF806000BF01CF92078022827D807200BF0F6F9082107203D
S224014B800BF042F901200BF015FA64200BF028FA01200AF049F800285CD1364B0121196040
S224014BA00AB070BD304609F0E3F92078012806D902203149BDF80E302A4601F04DF828467A
S224014BC009F0FEF95AE703202C4901F045F8D2E703202B4901F040F8224B1A78022AB5D9A6
S224014BE00320284901F038F8B0E70020264901F033F8A5E70320254901F02EF898E70320E2
S224014C00BDF806202249BDF80A3001F025F82A78022A7FF64DAF03209DF805301D49BDF804
S224014C20062001F019F82B78022B7FF641AF03201949BDF80820BDF80C3001F00DF8287828
S224014C4002287FF635AF03201449BDF80E2001F003F82DE70020124900F0FEFFA0E700BFBA
S224014C6088B2FF1FF800FF1F3018030058C3FF1F1547010024B3FF1F1C910300BC920300E9
S224014C808C920300AC920300709203005C9203004C9103009C910300F09103003C92030051
S224014CA0D492030032200021FFF7C6BE10B5174B174A18780021022882B011701CD84FF44B
S224014CC0FA700A2128220AF01BFD044650B90CF079F90CF087F90CF07DF90E4B20461C60F3
S224014CE002B010BD282100914FF4FA720A490A2301F056F80120F3E728240094032006499A
S224014D004FF4FA720A2300F0A7FFD8E7F800FF1FECB2FF1F24B3FF1FC09003004BF22433AE
S224014D20C1F6FF731868704710B51C4C82B0207010B9FDF75BFF30B13220002102B0BDE85C
S224014D401040FFF779BE164B2070187802281AD84FF4FA700A2128220AF0D2FC044648B9FE
S224014D600CF030F90CF03EF90CF034F90D4A146002B010BD282300930B494FF4FA720A2354
S224014D8001F00EF8F4E728210091032006494FF4FA720A2300F060FFDAE700BFECB2FF1F88
S224014DA0F800FF1F24B3FF1FC090030070B51D4C82B00D461646207010B9FDF717FF30B1DC
S224014DC02846314602B0BDE87040FFF735BE164B2070187802281AD84FF4FA700A21282239
S224014DE00AF08EFC044648B90CF0ECF80CF0FAF80CF0F0F80D4A146002B070BD28230093A4
S224014E000B494FF4FA720A2300F0CAFFF4E728210091032006494FF4FA720A2300F01CFF95
S224014E20DAE700BFECB2FF1FF800FF1F24B3FF1FC09003004BF22833C1F6FF7393ED000A87
S224014E40704700BFF0B5B74DB74C2A6823689A42A5B000F0C88004A80DF10F01B34E009059
S224014E600191002205AB08A80AA90BF079FA32689DF80F70531C33600FB92D682560BDF8B0
S224014E80104014F0700F40F0078104F0080001B207AF002940F0158117AC05A90CA80AF00E
S224014EA0CBFB0146002800F01C810CF0B7F93946204605AA0BF000FC9D4C394605AA0EA826
S224014EC00BF0E2FB394605AA11A80BF0E9FB67680F9D22680E9E1098A368E91B8911B71A5B
S224014EE0BA1101FB01F1C31A02FB0217991101FB0172B2F5803F8F4F14D93D688E480DB975
S224014F0005683D600668AB1B022B03D80E9E0F9D109809E001F0A6FD0E9E0F9D1098266042
S224014F206560A06000243C60119ABDF95E10129BBDF962C0BDF966E0BDF96A70ADF87C10D5
S224014F401413139AADF87EC0191376116D1140111313ADF880E0ADF88270ADF88460ADF822
S224014F608650ADF88800ADF88A40ADF88C10ADF88E3001F001FE002837D1704B0E9A1E680C
S224014F801A60B21A0F9D5F686D4C10989E686D495D6001EE902A9FED6C2AF8EEE12A7F1B22
S224014FA004EE107A94ED003A62EE823AF8EEC45A361A03EEA33A05EE106A65EE824AF8EE14
S224014FC0C56A04EEA43A26EE827A0A68986007EE073A0132642A84ED003A0A6000F0958041
S224014FE0012025B0F0BD0020FBE758480178002940F08580BDF98A20BDF98C30BDF98E0079
S22401500006EE902A07EE103A06EE100ADFED507AB8EEE60AF8EEC70AB8EEC61A60EE271A97
S22401502020EEA72A61EE272A14A8CDED141A8DED152ACDED162AFDF7F7FEBDF97C00BDF9C3
S2240150407E10BDF98020BDF9823005EE900A03EE101A03EE902A04EE103ADFED3E4AB8EE75
S224015060C35AF8EEE36AB8EEC47AF8EEE57A25EE246A26EEA40A67EE240A27EEA41A1BA835
S2240150808DED1B6A8DED1C0ACDED1D0A8DED1E1AFDF7D2FE0120A4E7059908A807AF0BF069
S2240150A091FE394606A808F05DFC079906980BF073FFBDF8104004F0080001B200293FF422
S2240150C0EBAEBDF92850BDF92A60BDF92C30059A179517AC20460021189619930BF006FEC3
S2240150E0DBE6BDF93000BDF93250BDF934601790059A1895204619960BF0B2FED5E61C20D7
S22401510014211FAAFDF71EFB74E713EE100AFCF7DBF802460B4610481049114E17F03CFB5B
S22401512085B220E0DCB2FF1FF4B2FF1FD8B2FF1FE0B2FF1FD0B2FF1F9CE9FF1F18B3FF1F3E
S22401514028B3FF1F8CB2FF1F00008037ECB2FF1F0000803D0000803890B2FF1FEC9203002B
S22401516058C3FF1F30BF706807492A4610F0F6FD0828F7D04FF4FA600023FF21236008F024
S22401518055F801202DE700BF90B2FF1F70B58AB007A904A809F0A2FD04460DF10A0009F0CA
S2240151A091F8079ABDF80A300898099E03FB00F103FB02F503A803FB06F308910993079532
S2240151C009F054F8DDED045A9DED056A9DED060ADDED037AF8EEE56AB8EEC67AF8EEC00AB7
S2240151E026EEA71A67EE871A27EEA02AFDEEC12ABDEEE13AFDEEC23ACDED042A8DED053ADB
S224015200CDED063A0BF0DEFE0BF0ECFE0BF0E2FE072C21D01F4E204A204B21482149224D4F
S22401522014F0010F18BF324614F0020F18BF334614F0040F1D4C08BF2646009617F0ACFAAA
S22401524084B200E030BF68681549224610F086FD0828F7D00AB070BD154E114C124D0FCE50
S2240152600FC496E8030023460A0C43F8040B07A819800321A2710BF0D3FB04A803210BF0F8
S224015280A7FC16240BF09EFE0BF0ACFE0BF0A2FED9E700BF388F03000C93030014930300BF
S2240152A0F8B2FF1F4093030058C3FF1F1C93030028930300F0B583B0FFF784F800F10C0555
S2240152C02946044609F00AFD07460DF1020008F0F9FFBDF802306269E668216903FB02F058
S2240152E003FB06F603FB01F121616061E66001A808F0BCFFD4ED005A94ED016A94ED020A45
S224015300DDED017AF8EEE56AB8EEC67AF8EEC00A26EEA71A67EE871A27EEA02AFDEEC12AF7
S224015320BDEEE13AFDEEC23AC4ED002A84ED013AC4ED023A0BF046FE0BF054FE0BF04AFE77
S224015340072F1AD01A4D2E78012E03D90220194900F082FC1822FF21204617F047FBFFF71E
S22401536001F82A781AB10120134900F075FC12F0BFFF0126304603B0F0BDFEF7F3FF03211B
S224015380064628460BF04CFB032120460BF020FC0BF018FE0BF026FE0BF01CFE044B197845
S2240153A00129E7D90220054900F056FCE2E700BFF800FF1F509303006093030078930300C3
S2240153C02DE9F047FFF704F890F8008090F801C08778C6780579B8F1FF0918BF4FF00109AB
S2240153E0BCF1FF0F18BF4FF001090446FF2F18BF4FF00109FF2E18BF4FF001094079A17914
S224015400E279237AFF2D18BF4FF00109FF2818BF4FF00109FF2918BF4FF00109FF2A18BFB3
S2240154204FF00109FF2B2BD0DFF8789099F800A0BAF1010F0ED90220184900F00DFC94F83E
S224015440008094F801C0A778E67825796079A179E279237ADFF854A0DFF85490104C8AF80F
S22401546000808AF801C08AF8027089F8006089F8015089F8020021706270A370BDE8F087A7
S224015480B9F1000FD0D1074B18780028F6D006490120BDE8F04700F0DFBB00BF949403001C
S2240154A0EC00FF1FF800FF1F48940300F000FF1FF400FF1F044B1A78824204D0034918707A
S2240154C00A6803480260704738B3FF1F9CE9FF1F40B3FF1F2DE9F04F644B18688BB000284C
S2240154E000F0BA80624B634C196822689142C0F0BB80614F3A68002A00F0B1805F4D1E6888
S22401550029688E4280F0AB8002921F681868117820F01F0017F0200F00F120000CBF4FF0E5
S224015520FF0C4FF0000C2060042900F28582DFE811F0740255028201AD0005001D681E6894
S224015540D3F800E0186848F21F51C5F2EB11A1FB0557A1FB06864AF6AB253F09CAF6AA25B6
S2240155603609A5FB079CA5FB06A54FEA5C086D0808EB480905EB4505C9EB0707761B02EB88
S224015580C70502EBC607A1FB00B16E684FEA1119B96896F800C096F801A0B7784D780E78E1
S2240155A091F8028032210EF1320B01FB1900C0EB0B002060029929B13049096881423CBFE3
S2240155C0216008462E49097861B3DFF8BCE0724528D0D3F800901A6822F0FF0E0EF58072D7
S2240155E0824206D22248026822F0FF0000F580702060022900F027824FEA89518A0D11112F
S22401560010D11B6823F00F071037874280F01E821748026822F00F0310334FF0FF0A2360DC
S2240156200F46D446174C6146206807F0B9FE6068514607F0B5FEA068394607F0B1FEE06837
S224015640314607F0ADFE2069294607F0A9FE6069414607F0A5FE01200BB0BDE8F08F002685
S2240156603E600246029650E70020F5E730B3FF1F9CE9FF1F40B3FF1F50B3FF1F3CB3FF1F90
S22401568038B3FF1FD400FF1F30950300D24D1F6828681E681968D2F804C0D2F80CE005912A
S2240156A03F1AC7F38119C0EB0608A9F10201D2F808B01569C8F3811A09F1FF3601298CBFE7
S2240156C0E146F1460AF1FF30AAF1020ABAF1010F8CBF5946294601288CBF5846284699F870
S2240156E000B0012E8CBF66467646CDF80CB099F801B096F802A096F800C07578CDF810B05F
S22401570099F8029091F800B0067890F801E0CDF81890BF00FFB291F80190CDF81CB08078C0
S2240157208978CDF82090C7F1FF0B0CFB07FC05FB07F54FEA88080AFB07F7DDF80CA009913E
S2240157405FFA88F8C8F1FF090BFB0ACC06FB08F6DDF818A00EFB08FE00FB08F0DDF81080DA
S2240157600AFB0B7708FB0B55DDF824A0DDF82080DDF81CB048F28101C8F2800108FB09EE99
S2240157800AFB090009FB0B6681FB0C9B81FB0789CDF81C9081FB0689CDF8209081FB0E894D
S2240157A0CDF8109081FB008981FB058ACDF824900BEB0C084FEAEC7CCDF818C00499DDF83B
S2240157C024C0CDF80C800AEB050BCDF804B04FEAE57ADDF80CB0DDF82080DDF81C9001EB05
S2240157E00E050CEB0001DDF818C0C017CCEBEB1CB044CDF80CC0C0EBE111DDF804C00598FE
S224015800F617B944C6EBE816FF17DDF80C804FEAEE7ECAEBEC1AC7EBE917CEEBE51501305C
S2240158205FFA88FC5FFA8AFAFFB2F6B2EDB25FFA81F82060BEE6684E1F6830681D681968DF
S224015840D2F804C0D2F80CE005913F1AC7F30129C0EB0508A9F10201D2F808B01669C8F31A
S224015860012A09F1FF3501298CBFE146F1460AF1FF30AAF1020ABAF1010F8CBF5946314609
S22401588099F800A0012D8CBF65467546CDF80CA099F801A095F800C095F801E0CDF810A01F
S2240158A001288CBF5846304691F800A095F802B099F8029006784578CDF81890FFB291F8ED
S2240158C00190CDF81CA080788978CDF82090C7F1FF0A0CFB07FC0EFB07FE0BFB07F7DDF890
S2240158E00CB009915FFA88F8C8F1FF090AFB0BCC06FB08F6DDF818B005FB08F500FB08F04A
S224015900DDF810800BFB0A7708FB0AEEDDF824B0DDF82080DDF81CA048F28101C8F28001F4
S22401592008FB09550BFB090009FB0A6681FB0C8B81FB0798CDF81C8081FB0698CDF820806F
S22401594081FB0598CDF8108081FB009881FB0E9ACDF824800BEB0C094FEAEC7C0AEB0E0B78
S224015960CDF818C04FEAEE7A0499DDF81CE0DDF824C0CDF80C90DDF82080CDF804B00EEB74
S2240159800709DDF80CB001EB050E0CEB0001DDF818C0B044C017F617CCEBEB1CC6EBE81677
S2240159A0C0EBE1180599CDF80CC0DDF804C0481CFF17ED1703992060CAEBEC1AC7EBE9176E
S2240159C0C5EBEE155FFA81FC5FFA8AFAFFB2F6B2EDB25FFA88F8EDE534B3FF1F1F681E68A6
S2240159E0186887F0200586F02001C5F34017C1F3401602EBC70502EBC6016F68896897F811
S224015A0000C097F801A00E78BF784D7891F8028020F01F0020302060CCE55068916890F81A
S224015A2000C090F801A087780E784D7891F802804FF0FF302060BDE54FF000084546464634
S224015A404746C246B6E55FFA89F2D8E54FF0FF0A0F46D446E6E500BF30B44EF69C13C1F6B0
S224015A60FF734BF230344BF240314BF234321D681B68C1F6FF74C1F6FF71C1F6FF722060BB
S224015A800D60136030BCFFF725BD00BF10B5104B984282B015D00F4B0F4A18604CF6CD4012
S224015AA014681268CCF6CC40A0FB010104EBD1030A480B4903600A6002B0BDE81040FFF7AC
S224015AC009BD01900091FFF77BFC00990198E2E73C94030050B3FF1F9CE9FF1F3CB3FF1FCC
S224015AE040B3FF1F194B1A4A1968106049B11949002822D009681848184B002908BF1846DE
S224015B0008E0144B88B918681549164A00280CBF10460846144A154B11681860144812689D
S224015B20016014490A60FFF7D5BC1968124A134B00290CBF10461846ECE70868104B114AD4
S224015B4000280CBF10461846E4E700BF44B3FF1F4CB3FF1F2CB3FF1FE8930300C894030002
S224015B60E8940300009503009CE9FF1F30B3FF1F40B3FF1F34B3FF1F309403003C950300B3
S224015B80AC930300149503001A4B1B4918600A6850B1002A25D01949194B0868194A00287D
S224015BA00CBF1046184608E092B91448164B0168164A00290CBF10461846154B19681A689C
S224015BC0144B18601448016014490A60FFF782BC0A49134B0868134A00280CBF104618460B
S224015BE0EBE70649104B0868104A00280CBF10461846E2E744B3FF1F4CB3FF1F2CB3FF1FBA
S224015C00E8930300C8940300E8940300009503009CE9FF1F30B3FF1F40B3FF1F34B3FF1FD0
S224015C203C95030030940300AC93030014950300024B186800B97047FFF74CBC48B3FF1F81
S224015C404BF24833C1F6FF73186070474BF25433C1F6FF73187070470EB42DE9F0434E4B5E
S224015C60C8B04FAC53F8200054F8042B058801944FF4807123460DF11E00ADF81C5016F0D3
S224015C80AFFD044607A816F04BFD444991F80080B8F1010F04D048B0BDE8F04303B07047AE
S224015CA00334F8D446F6CB32CAF62872A2FB0426A71B06EB5703132C4FF00009C3F3001720
S224015CC050DC02A807A9224616F06FFE8DF81B8038201421133C02AA1326FCF76DFD002CF3
S224015CE0D9DB97B1B4422CDC07AA911902A8224616F05BFE8DF81B8038201421133C02AA30
S224015D001336FCF759FD002CC5DB07A8132C00EB060702AD36DD38687968BA68FB68B7F8C2
S224015D2010E0BF7C8DF81B900FC5A5F800E0AF7038201421133C02AA1336FCF73DFD132C55
S224015D40D2DD07ADAF1902AD38687968BA68FB68B7F810C0BF7C8DF81B900FC5A5F800C042
S224015D60AF70C9E707980899099A0A9BBDF82CE09DF82E608DF81B9002AD0FC5A5F800E0B2
S224015D80AE70A5E707A98919224602A816F00DFE8DF81B80CCE700BF5095030054B3FF1F3F
S224015DA00EB430B5C2B045AC054654F8042B4FF48071234602A8019416F012FD49F264512C
S224015DC00020C0F2030102AA2B46FFF745FF42B0BDE8304003B070474BF248704BF6C80120
S224015DE04BF25832C1F6FF71C1F6FF70C1F6FF722DE9F00F4BF2D84C07460E4614460023CD
S224015E00C1F6FF7C47F8043B46F8043B44F8043B6546043745F8043B04360434043547F888
S224015E20043B46F8043B44F8043B45F8043B47F8043B46F8043B44F8043B45F8043B47F878
S224015E40043B46F8043B44F8043B45F8043B47F8043B46F8043B44F8043B86B045F8043B61
S224015E60B8463746264601F5947945F8043B48F8043B46F8043BCDF8049001F5987A01F563
S224015E809A7947F8043BCDF808A0CDF80C9001F59C7A01F59E79CDF810A0CDF81490C8F8E6
S224015EA0003043604B603B6033602B605360CCF80430036243628362C362036343638363F4
S224015EC0C3630B624B628B62CB620B634B638B63CB63136253629362D362136353639363B4
S224015EE0D363CCF82030CCF82430CCF82830CCF82C30CCF83030CCF83430CCF83830CCF8C2
S224015F003C30036443648364C364036543658365C3650B644B648B64CB640B654B658B6587
S224015F20CB65136453649364D364136553659365D365CCF84030CCF84430CCF84830CCF803
S224015F404C30CCF85030CCF85430CCF85830CCF85C30036643668366C36603674367836775
S224015F60C3670B664B668B66CB660B674B678B67CB67136653669366D366136753679367D3
S224015F80D367CCF86030CCF86430CCF86830CCF86C30CCF87030CCF87430CCF87830CCF85D
S224015FA07C30C0F88030C0F88430C0F88830C0F88C30C0F89030C0F89430C0F89830C0F84B
S224015FC09C30C1F88030C1F88430C1F88830C1F88C30C1F89030C1F89430C1F89830C1F803
S224015FE09C30C2F88030C2F88430C2F88830C2F88C30C2F89030C2F89430C2F89830C2F8DB
S2240160009C30CCF88030CCF88430CCF88830CCF88C30CCF89030CCF89430CCF89830CCF86A
S2240160209C30C0F8A030C0F8A430C0F8A830C0F8AC30C0F8B030C0F8B430C0F8B830C0F8CA
S224016040BC30C1F8A030C1F8A430C1F8A830C1F8AC30C1F8B030C1F8B430C1F8B830C1F882
S224016060BC30C2F8A030C2F8A430C2F8A830C2F8AC30C2F8B030C2F8B430C2F8B830C2F85A
S224016080BC30CCF8A030CCF8A430CCF8A830CCF8AC30CCF8B030CCF8B430CCF8B830CCF8EA
S2240160A0BC30C0F8C030C0F8C430C0F8C830C0F8CC30C0F8D030C0F8D430C0F8D830C0F84A
S2240160C0DC30C1F8C030C1F8C430C1F8C830C1F8CC30C1F8D030C1F8D430C1F8D830C1F802
S2240160E0DC30C2F8C030C2F8C430C2F8C830C2F8CC30C2F8D030C2F8D430C2F8D830C2F8DA
S224016100DC30CCF8C030CCF8C430CCF8C830CCF8CC30CCF8D030CCF8D430CCF8D830CCF869
S224016120DC30C0F8E030C0F8E430C0F8E830C0F8EC30C0F8F030C0F8F430C0F8F830C0F8C9
S224016140FC30C1F8E030C1F8E430C1F8E830C1F8EC30C1F8F030C1F8F430C1F8F830C1F881
S224016160FC30C2F8E030C2F8E430C2F8E830C2F8EC30C2F8F030C2F8F430C2F8F830C2F859
S224016180FC30CCF8E030CCF8E430CCF8E830CCF8EC30CCF8F030CCF8F430CCF8F830CCF8E9
S2240161A0FC30C0F80031C0F80431C0F80831C0F80C31C0F81031C0F81431C0F81831C0F842
S2240161C01C31C1F80031C1F80431019DDDF808A0C1F80831C1F80C31C1F81031C1F8143199
S2240161E0C1F81831C1F81C31C1F82031C1F824312B60C1F82C31049DCAF80030DDF80CA0C4
S224016200C2F800314BF64824CAF80030C1F6FF74C2F80431C2F80831C2F80C31C2F81031F0
S224016220C2F814312B60C2F81831C2F81C31CCF80031CCF80431CCF80831CCF80C31CCF814
S2240162401031CCF81431CCF81831CCF81C31C0F82031DDF81490C0F82431C0F82831C0F878
S2240162602C31C0F83031C0F83431C0F83831C0F83C31C9F80030C2F82031C2F82431C2F87A
S2240162802831C2F82C31C2F83031C2F83431C2F83831C2F83C31CCF82031CCF82431CCF812
S2240162A02831CCF82C31CCF83031CCF83431CCF83831CCF83C31C0F84031C0F84431C0F8A4
S2240162C04831C0F84C31C0F85031C0F85431C0F85831C0F85C3101F5927BC1F84031C1F828
S2240162E04431C1F84831C1F84C31C1F85031C1F85431C1F85831C1F85C31C2F84031C2F8D6
S2240163004431C2F84831C2F84C31C2F85031C2F85431C2F85831C2F85C31CCF84031CCF89B
S2240163204431CCF84831CCF84C31CCF85031CCF85431CCF85831CCF85C31C0F86031C0F837
S2240163406431C0F86831C0F86C31C0F87031C0F87431C0F87831C0F87C31C1F86031C1F87D
S2240163606431C1F86831C1F86C31C1F87031C1F87431C1F87831C1F87C31C2F86031C2F855
S2240163806431C2F86831C2F86C31C2F87031C2F87431C2F87831C2F87C31CCF86031CCF81B
S2240163A06431CCF86831CCF86C31CCF87031CCF87431CCF87831CCF87C31237006B0BDE8EA
S2240163C0F00F7047F8B5324D2C780B2C2DED028B59D8B0EB410F56DB00EE901A07EE100A5F
S2240163E0F8EE606A9FED2B1AF8EE477A66EE811A80EE270A284E294FC1EEA72AF7EE008A04
S224016400B0EE082A12EE900AB0EE688A00EE428AFAF75AFF41EC100B17F062FE51EC100B71
S224016420FBF768FA38EE086A03EE100A26EE034A73EE033A78EEC44A48EE084AF0EE005A2C
S22401644035EEE35AF8EE007A84EE857A14491548154AA300C018F618C918D2180134FB1850
S2240164602C7028EE488A67EE270A80ED007A60EE836A86ED007AC1ED006A82ED004A83EDBC
S224016480008A002000E00120BDEC028BF8BD00BF48BAFF1FDB0FC94058B6FF1F18B7FF1F75
S2240164A088B6FF1FB8B6FF1FE8B6FF1FF8B55F4D2C780B2C2DED048B02D8B0EB410F03DAB3
S2240164C00120BDEC048BF8BD02EE101A07EE100AF8EE428AF8EE477ADFED550A88EEA70AD4
S2240164E0544F554EB6EE008A20EE201A61EE088A38EE680A17F096FFB0EE409A38EE880A95
S22401650017F090FFC9EE001A4C484D494D4AA300FF18F618C918D2180134C3182C700020EE
S224016520DFED496A9FED493ADFED492AF0EE665A41EE835A71EEA13A21EEA62A21EEA25ABA
S2240165409FED446A9FED444A33EEA27A21EE840A61EE860A41EE825A01EE857AF7EE004A00
S22401656075EE247ADFED3D6A41EEC07A21EEA01A11EEE15A01EEE67A75EEC22A76EE421AD7
S22401658031EE423A9FED362A82EEA70A71EE815A73EE063A35EE425A87EE277AC5EEA70A39
S2240165A083EEA74A85EE271ADFED2E7A60EE271A77EEC76AF0EE675A24EE276A20EEA73AF5
S2240165C041EE676A47EE675A71EEA02A30EE030A72EE860A35EEC15A31EE837A36EE001AE3
S2240165E077EEE61A30EEA72A34EE073A72EE017A31EEC54A37EE836A74EEC44AF1EE666AA4
S224016600C6EE242AF1EE453AC0EEA25A83EE220AC1EE220AC7ED005AC6ED000A81ED000AAF
S224016620C2ED006AC3ED003A4BE700BF48BAFF1FDB0FC94058B6FF1F88B6FF1F18B7FF1FD8
S224016640B8B6FF1FE8B6FF1F4290933E429093BE0B702D3F4290133E980082BE980002BFEB
S2240166609800823E000000002DE9F00FBA4B8AB01978049000228800099106900792099D2A
S224016680002D00F05881049CDDF81C902688B34BDFF8CCA2DFF8CC82DFF8CCC2DFF8CCB20D
S2240166A002934BF248774FEA890031B2C1F6FF773F1805EE901A97ED006AD3ED007AF8EE6F
S2240166C0E56A9AED007A4BF6C802C1F6FF7226EE270A161806EE870AD6ED000A98ED001ACD
S2240166E04BF25835C1F6FF752D1801EE200AD5ED001A9CED002A4BF2D844C1F6FF742418F3
S22401670001EE820A0699D4ED002A9BED005A04394FF00409039105EE220A16EE101ACDF85D
S2240167201490B146384649F8201B16EE901A2A4640F8201B10EE101A42F8201B0399CDF82F
S2240167400490BDEEC03A11EE909A2346C1F3800143F8209B039113EE109A0499A1F8009038
S22401676006994FF0040989458DED083A00F0E3800399002900F0EC80DDF81090B9F80010F4
S224016780ADF8141002990431D1ED003A0291BDF9141007EE901A97ED086A0AF1040A9AEDD0
S2240167A0004AF8EEE76A66EE230A08F1040846EE840A96ED087AD8ED004A0CF1040C44EEB7
S2240167C0870A95ED081ADCED005A0BF1040B41EE250AD4ED081A9BED000A40EE210A4FF0E5
S2240167E00809BDEEE02ACDF81490C5ED080A12EE109A049D84ED081A86ED086A019CC7ED8C
S224016800086AA5F80090DDF81890082120342030203220334945019400F08D80DDF8089057
S2240168202146049E37883CB203EE904AD0ED002A99ED015A9AED013AB8EEE34A62EE854A55
S22401684044EE034A91ED000AD8ED015A0D4645EE804A12EE904A92ED006ADCED017A45F877
S224016860204B46EE274AD3ED006ADBED010A0646089514EE105A1C4646F8205B40EEA64A77
S22401688016EE105A44F8205BBDEEE47A1746029414EE904A049D47F8204B17EE104A2C809F
S2240168A02D882CB202EE104A90ED081AD9ED021A9AED025AF8EEC22A21EE213A02EE853AA6
S2240168C0D1ED083A98ED024A04EE233AD2ED084A9CED020A04EE803AD3ED085A9BED026A2A
S2240168E006EE253A059DFDEEC37A083517EE904A81ED081A8DED037A0595C0ED082A0498BD
S2240169000899C3ED084A82ED083A029B0480069C20312033A5420AF1080A09F1080908F1BE
S22401692008080CF1080C0BF1080B06F1200007F120027FF476AF079B049A5D1C901C082DBE
S224016940079504907FF49BAE0AB0BDE8F00F7047DDF80890019964E748BAFF1F88B6FF1F62
S22401696058B6FF1FB8B6FF1FE8B6FF1F18B7FF1F38B548F22003C4F204034FF480425969E2
S224016980324CC4F20702812541F48010586155702378012B10D902202D49FFF75DF922789D
S2240169A0012A09D94FF47041C4F2070102200A784B782849FFF750F948F22005C4F20405DD
S2240169C025486B6923F480226A61FFF745F806F0FFFAFDF70DFEFEF7F3FC0120FFF730F9A7
S2240169E0FCF734FD00F0FCF8FCF75CF8FCF718FFFBF7DAFDFDF724FFFCF794F82478022C0F
S224016A001FD800F0B9F8C0B9144DFBF7F5FD044600F028F90443FEF715FA0443FDF7ACFA93
S224016A200443FEF757FD044300F028F8044300D130BFE86910F0F2FDE7E70020FFF700F945
S224016A40E2E703200649FFF707F9DAE7F800FF1F98950300B09503003095030058C3FF1FAF
S224016A60E49503004EF69C12C1F6FF724BF64C231068C1F6FF731860704700BF30B52B4BE0
S224016A801878012887B01DD029492A4C22680B68D01A00EB800147F22F52B2EB410F11D24E
S224016AA0254D2B78022B10D8684603A908F016F9830714D42C786CB92048FEF7CDFFFEF7EC
S224016AC009FDFCE7002007B030BD03201C49FFF7C3F8E9E701201B49FFF7BEF8ECE7FEF701
S224016AE0E5F81948FEF7B8FF0021184806F014FA01210A46164806F0A9F9206821680A1A84
S224016B00092A04D830BF2368191A0929FAD92878012803D902200F49FFF79EF800210420BE
S224016B200A460FF0C1FA0120CDE700BF49BAFF1F4CBAFF1F9CE9FF1FF800FF1F9893030085
S224016B4008960300249603003095030078CC030008CC0300549603004EF69C11C1F6FF71E6
S224016B604BF64C224BF649230968C1F6FF72C1F6FF731160187070474BF65023C1F6FF7364
S224016B80187870474BF65123C1F6FF73187070470F4B187810B500B910BD0E4806F0A4F96D
S224016BA0044640B10C4B0D48022200211A70BDE8104006F081B9084A08480121117006F0B9
S224016BC07BF906482146BDE8104006F0A5B900BF50BAFF1FACCC030051BAFF1F34CC0300AF
S224016BE0F8B500200EF0C0FF194806F07DF9044678B9184B184E194802251D70357006F044
S224016C0073F90746C0B116483570214606F054F90CE0104B104A1248002401211C70147046
S224016C2006F04AF90E48214606F076F908480121BDE8F84006F040B9012211460848327049
S224016C4006F03AF90648394606F066F9EEE700BF80CC030050BAFF1F51BAFF1FACCC030034
S224016C6034CC0300F8B52B4D2B4C2878227890424AD0012810D0022802D020700120F8BDDE
S224016C80EAB1012A42D0FBF74DFF2448FEF7E4FE287820700120F8BDFEF708F8FCF7E6FEC3
S224016CA0FBF796FF00211E4806F036F91D48FEF7D3FE0FF0D7F9287820700120F8BDFEF7A6
S224016CC0B9F810EE100AFAF7FFFA02460B4616481649174F15F060FD86B200E030BF7868F6
S224016CE0114932460FF03AF80828F7D0C82000F02FF90F4B002158680FF0CAF8FDF7D6FFCF
S224016D00FBF78CFB2278BCE70020F8BDFBF764FBB9E700BF51BAFF1F50BAFF1F0095030049
S224016D2078CC0300D093030054BAFF1F6096030058C3FF1F68464FF4304220F00701C4F211
S224016D400B028D4601B44BF652231069C1F6FF7381B2198001BC8546704700BF054B1868A6
S224016D60016829B100F580500268002A18BF0020704700BFA4CB0300F8B52C4B1C6804F5F1
S224016D80805107460A68EAB9294D2878022826460C461CD830460121FDF776FC08BB2B7864
S224016DA0022B28D8304639461022FDF73DFC00282CD1297802292ED820460121FDF764FC79
S224016DC0A0B9F8BD1A4D287802280E46E2D903201849FEF741FF30460121FDF755FC0028A1
S224016DE0DDD01449FEF7DCFF0120F8BD1249FEF7D7FF0120F8BD03201049FEF72DFF3046CE
S224016E0039461022FDF710FC0028D2D00B49FEF7C7FF0120F8BD03200749FEF71DFF204622
S224016E200121FDF731FC0028CBD0DFE7A4CB0300F800FF1F78960300B8960300909603006D
S224016E406846002220F00701C4F204028D4601B510684EF69C13C1F6FF7340F08001116049
S224016E601A68501C186006F00BFAFEF7E1FEFDF71DFABDE801408546704700BF4CF6AC3384
S224016E80C0F2030318680830704700BF0D4B70B41D680D4E2B46344653F8080F59689A689A
S224016EA0DB680FC42B4653F8180F59689A68DB680FC40649288D012220800A60304670BC27
S224016EC0704700BFACCB030074BAFF1F9CBAFF1F70B5194D286882B070B1184B1C6822681D
S224016EE0204601210092FDF7CFFB50B1144A11780120E1B902B070BD1249FEF7ADFE012016
S224016F00F8E704F1080010492822FDF78DFB06460028EBD1009802A9431C41F8083D2046BA
S224016F2069460822FDF780FB2E603046E2E70749FEF792FE0120DDE79CBAFF1FACCB03008E
S224016F40F800FF1FE496030074BAFF1F3C970300F8B5094D0746A86810F074FAC71904467E
S224016F60BEB2A86810F06EFA844201D2B842F8D3B042F6D3F8BD00BF58C3FF1F4CF2583394
S224016F80C1F6FF7310B50446986810F05BFA206010BD00BF90ED007AD0ED017AB4EEC70AB0
S224016FA0F1EE10FA8CBF00230123B4EEE70AD0ED020A2DE9F041F1EE10FA03F1010598BF73
S224016FC02B46B4EEE00A90ED031AF1EE10FA03F1010798BF3B46B4EEC10AD0ED041AF1EE30
S224016FE010FA03F1010598BF2B46B4EEE10A90ED052AF1EE10FA03F1010798BF3B46B4EE27
S224017000C20AD0ED062AF1EE10FA03F1010598BF2B46B4EEE20A90ED073AF1EE10FA03F1DD
S224017020010798BF3B46B4EEC03A5D1C2DED028BF1EE10FAA8BF2B46012B88B004460D46EC
S224017040904640F38A80082101F08EFE94ED004AD4ED014A94ED025AD4ED035A94ED046AB0
S224017060D4ED056AD4ED063A94ED077AC4EE007AB8F1010FC4EE800A85EE001AC5EE801ADC
S22401708086EE002AC6EE802A83EE803A87EE000ACDED007ACDED010A8DED021ACDED031ADE
S2240170A08DED042ACDED052A8DED063A8DED070A53DD203528460822694601F08DFE9FED20
S2240170C0288AB5EE400AF1EE10FA4FF000074FF00204C8BFB0EE408AC8BF0127203544451B
S2240170E008F0010033D080B128460822694601F073FEB4EEC80AF1EE10FAC4BFB0EE408A6C
S224017100274601342035444521D028460822694601F062FE05F12006B4EEC80A0822304630
S2240171206946651CF1EE10FAC4BFB0EE408A274601F052FEB4EEC80AF1EE10FA02DDB0EEBD
S224017140408A2F466C1C444506F12005DDD1384608B0BDEC028BBDE8F0810027F7E700BFC9
S224017160000000002DE9F84300F538530646986800280F462ADD06F53858002508F10808AF
S22401718005F1F00006EB401305F1700453F8049F06EB4414D3F804C09868D968C4F80490FE
S2240171A0C4F808C0E06021615869D3F810C09969DB69C4F814C0A061E1612362D8F80000B9
S2240171C001350434A842DBDC022A18D0002FB8BF7F4297B10028C7F108070EDD06F5385575
S2240171E00024083506EB441101F60460394602F0CDFF2B680134A342F4DCBDE8F883002885
S224017200E4DD002406EB441202F6046002F0AEFFD8F800000134A042F4DCD7E700F538534C
S224017220F0B49968002921DD00F538570021083701F1F00200EB421301F1700453F804CFF0
S22401724000EB44125E689D68DC68C2F804C09660D56014611E695D699C69DB695661956177
S224017260D46113623A6801318A42E1DCF0BC70472DE9F04F534C2DED028B246883B00746F7
S22401728090461D4664B903F5D3535E68002E0ADD013E5E60204603B0BDEC028BBDE8F08F29
S2240172A0494B1868F7E7D5F89CEDEB6F45F256560EF10102C5F2555686FB02C6A6EBE276AD
S2240172C00EF5597C06EB4606921B45F82C10C5F89C2D05F55961032201F0B6FB064620B14F
S2240172E0C5F8404D4FF6FF70D5E708F5385A08F604613846DAF808209FED340AFFF74AFE5C
S224017300DAF804100190002920DD08EB800908F5385BDFED2F8A05F10C0409F104090BF130
S224017320040B94ED008A28EE288A99ED000AA4EC018A01F097FEDBF8003038EE000A0136CA
S224017340B34204ED010A09F50079EADC019A29462A60404600F03EF8D5F8341D034631BB66
S224017360C5F8403D3C687868B968FA68C5F8444DC5F8480DC5F84C1DC5F8502D3C69786980
S224017380B969FA69C5F8544D002BC5F8580DC5F85C1DC5F8602D05F644550FDBDAF80400E3
S2240173A04FF6FF718342B4BF1846084673E7384641462A4601F064F80346D1E74FF6FF705D
S2240173C069E700BFA4BAFF1FA0BAFF1F000048436666663F2DE9F04100F538532DED028B3A
S2240173E00F465968002988B040F3F38000F538589FED798A07F108066D46002408F1040874
S2240174000436B0EE000AD6ED000A17F06BF8D8F8002010EE100A0134A24245F8040F38EEB6
S224017420008AEDDC002A40F3D480DDED017A87EE880A01AB03EB8205E91A02AB081FAB4211
S224017440C0F3800403ED010A19D044B1D3ED000A80EE881A03ABAB4203ED011A0FD0D3EDF7
S224017460001A81EE882A1946A1EC012AD3ED012A82EE883A0B46A3EC013AAB42EFD1012AA4
S22401748040F3A78097ED037AD7ED043AB4EEE37AF1EE10FA4ED400230124022A1D464ED08A
S2240174A007F10C003946C618143196ED004AD1ED004AF4EEC44AD61EF1EE10FA06F0010681
S2240174C07CDD2C46B0EE644A02250323934236DA0EB3043191ED005AB4EEC45AF1EE10FAE6
S2240174E00E4660DD10E096ED006AF4EE465AF1EE10FAC8BF1C4691ED015AB4EEC45A0133F7
S2240175000431F1EE10FA4EDD2C46B0EE454A1D460133934213DAD1ED015AF4EEC45A0431D6
